:100000000C947C010C948F0D0C94640D0C94390DA0
:100010000C940E0D0C94E30C0C94B80C0C948D0CF9
:100020000C94620C0C94AD010C94AD010C94AD01D8
:100030000C94AD010C94AD010C94AD010C94AD0188
:100040000C94AD010C94AD010C94AD010C94AD0178
:100050000C94AD010C94AD010C94AD010C94180CF2
:100060000C94AD010C94E20B0C94B80B0C94AD0104
:100070000C94AD010C94AD010C94AD010C94AD0148
:100080000C94AD010C94AD010C94AD010C94AD0138
:100090000C94AD010C94AD010C94AD010C94BA0D0F
:1000A0000C94AD010C94AD010C94AD010C94AD0118
:1000B0000C94AD010C94AD010C94AD010C94AD0108
:1000C0000C94AD010C94AD010C94AD010C94AD01F8
:1000D0000C94AD010C94AD010C94AD010C94AD01E8
:1000E0000C94AD010C941F090C9406040C940904A3
:1000F0000C94B3030C9492020C94E2060C94DA0E66
:100100000C94DC070C9409080C94AB060C94340492
:100110000C9491040C94D8060C94D5070C942503E8
:100120000C947E020C94D8020C9466070C94D503B0
:100130000C94BF060C94F6060C94A6030C94CF07FF
:100140000C94C1030C94CF030C94A3060C94761565
:100150000C948D040C9487060C948F090C94D20790
:100160000C94A2030C9442020C9494030C94700619
:100170000C947D060C9400070C94DD040C94D403BD
:100180000C94C7030C9499040C949B060C94A00245
:100190000C94CE070C94BD030C949A030C94910616
:1001A0000C94B9030C946F020C9467070C94CB0366
:1001B0000C94AF030C94EC060C94B5060C947806E2
:1001C0000C949E030C94D9030C94C9060C94A903B7
:1001D0000C940A0700002100240027002A002D00AB
:1001E0003000330001010000040107010A01000092
:1001F0002200250028002B002E00310034000201CF
:100200000000050108010B0100002000230026006A
:1002100029002C002F00320000010000030106011C
:10022000090105050505070508080808020202027C
:100230000A0A080804040404010101010101010182
:100240000303030303030303040707070C0C0C0C4D
:100250000C0C0C0C02020202060606060606060636
:100260000B0B0B0B0B0B0B0B0102102020080810C3
:100270002040102040800201020108040201010216
:1002800004081020408080402010080402018004EF
:10029000020180402010080402010804020101024A
:1002A0000408102040800102040810204080000053
:1002B0000A0B02090C0D0E080703040100000000E0
:1002C000000000000000000000000000000000002E
:1002D00000000000000000000000121110000000EB
:1002E000000000000000000000000000000000000E
:1002F00000000000DA0E761511241FBECFEFD1E208
:10030000DEBFCDBF00E00CBF25E0AAE7B3E001C02F
:100310001D92A739B207E1F713E0A0E0B2E0E0EDEB
:10032000F4E300E00BBF02C007900D92AA37B107BB
:10033000D9F711E0CBE7D1E000E006C02197010931
:10034000802FFE010E942F18CA37D10780E00807CE
:10035000A9F70E94BE0F0C94561A0C94000096E068
:10036000899FD0011124AC5DBA4F90967C936E9317
:100370005F9791E091969C939197E0919105F09110
:10038000920590919005992339F0309751F08111A1
:1003900008C0809140051994309719F05C968C91B3
:1003A000FACF0895CF92DF92EF92FF920F931F93AF
:1003B00096E0899FF0011124EC5DFA4F11A2278D80
:1003C00030A12130310551F178F02230310509F4A6
:1003D00051C02330310509F452C01F910F91FF9095
:1003E000EF90DF90CF9008956623B9F361E070E05D
:1003F0000E94AF012FB7F894809165049091660434
:10040000A0916704B09168042FBF80937C059093FE
:100410007D05A0937E05B0937F05DFCF9FB7F8944D
:10042000C0906504D0906604E0906704F090680482
:100430009FBF00917C0510917D0520917E05309134
:100440007F05C01AD10AE20AF30A00918E051091C5
:100450008F0530E020E00C151D052E053F0550F4FA
:1004600062E070E01F910F91FF90EF90DF90CF90CE
:100470000C94AF016111B1CF63E070E0F3CF70E095
:1004800060E0F0CFAF92BF92CF92DF92EF92FF92F7
:100490000F931F93CF93DF936C017B018B01040FAC
:1004A000151FEB015E01AE18BF08C017D10759F048
:1004B0006991D601ED91FC910190F081E02DC6018A
:1004C0001995892B79F7C501DF91CF911F910F9174
:1004D000FF90EF90DF90CF90BF90AF900895FC0118
:1004E000538D448D252F30E0842F90E0821B930B99
:1004F000541710F0CF96089501970895FC01918D3F
:10050000828D981761F0A28DAE0FBF2FB11D5D9641
:100510008C91928D9F5F9F73928F90E008958FEFE3
:100520009FEF0895FC01918D828D981731F0828D97
:10053000E80FF11D858D90E008958FEF9FEF0895EE
:10054000FC01918D228D892F90E0805C9F4F821B52
:1005500091098F739927089589E694E00E94A0027B
:1005600021E0892B09F420E0822F0895FC01A48D5D
:10057000A80FB92FB11DA35ABF4F2C91848D90E0C5
:1005800001968F739927848FA689B7892C93A089A8
:10059000B1898C91837080648C93938D848D981332
:1005A00006C00288F389E02D80818F7D80830895C5
:1005B000EF92FF920F931F93CF93DF93EC0181E0B3
:1005C000888F9B8D8C8D98131AC0E889F98980815A
:1005D00085FF15C09FB7F894EE89FF896083E8898D
:1005E000F98980818370806480839FBF81E090E07F
:1005F000DF91CF911F910F91FF90EF900895F62E0C
:100600000B8D10E00F5F1F4F0F731127E02E8C8DA5
:100610008E110CC00FB607FCFACFE889F9898081EA
:1006200085FFF5CFCE010E94B602F1CFEB8DEC0F26
:10063000FD2FF11DE35AFF4FF0829FB7F8940B8F07
:10064000EA89FB8980818062CFCFCF93DF93EC0171
:10065000888D8823B9F0AA89BB89E889F9898C91AA
:1006600085FD03C0808186FD0DC00FB607FCF7CF66
:100670008C9185FFF2CF808185FFEDCFCE010E9466
:10068000B602E9CFDF91CF91089580E090E0892B09
:1006900029F00E94AC0281110E94000080E090E0ED
:1006A000892B49F080E090E0892B29F00E9400001E
:1006B00081110E94000080E090E0892B49F080E0E9
:1006C00090E0892B29F00E94000081110E94000017
:1006D00080E090E0892B49F080E090E0892B29F0C0
:1006E0000E94000081110C94000008958150823115
:1006F00008F05AC0E82FF0E08827EE57FC4F8F4FE4
:100700000C942F18A203A60394039A039E03D40308
:10071000A903AF03B303B903BD03C103C703CB03ED
:10072000D403CF03D503D903809180008F778093C2
:1007300080000895809180008F7DF9CF80918000A6
:10074000877FF5CF84B58F7784BD089584B58F7D7D
:10075000FBCF8091B0008F778093B0000895809197
:10076000B0008F7DF9CF809190008F7780939000BB
:100770000895809190008F7DF9CF80919000877FC0
:10078000F5CF8091A0008F778093A000089580918D
:10079000A0008F7DF9CF8091A000877FF5CF809159
:1007A00020018F77809320010895809120018F7D13
:1007B000F9CF80912001877FF5CFCF93DF93282F4A
:1007C00030E0F901E255FD4F8491F901E859FD4F00
:1007D000D491F901EE5DFD4FC491CC23A1F08111BC
:1007E0000E947603EC2FF0E0EE0FFF1FE85FFD4F55
:1007F000A591B491EC91ED2381E090E009F480E0C3
:10080000DF91CF91089580E090E0FACF862F0C948D
:10081000DD0385E00E94DD0320917C0330917D03A0
:10082000892BF9F02F5F3F4F30937D0320937C039A
:1008300060917C0370917D03072E000C880B990B4F
:100840000E94C21520E030E044EB53E40E9462179E
:1008500060934F047093500480935104909352041A
:10086000089521503109E0CF86E00E94DD032091F8
:100870007A0330917B03892BF9F02F5F3F4F309340
:100880007B0320937A0360917A0370917B03072E98
:10089000000C880B990B0E94C21520E030E044EB5D
:1008A00053E40E946217609353047093540480933E
:1008B000550490935604089521503109E0CF1F93B9
:1008C000CF93DF93282F30E0F901E255FD4F84915B
:1008D000F901E859FD4FD491F901EE5DFD4FC49146
:1008E000CC23A9F0162F81110E947603EC2FF0E0A3
:1008F000EE0FFF1FE251FE4FA591B4918FB7F89410
:10090000EC91111108C0D095DE23DC938FBFDF91ED
:10091000CF911F910895DE2BF8CF862F642F0C9472
:100920005F0460E088E00E945F0460E089E00C946E
:100930005F0460E08CE00E945F0460E08DE00C9456
:100940005F04CF93DF9390E0FC01E859FD4F2491C1
:100950008E5D9D4FFC0184918823C9F090E0880F43
:10096000991FFC01EC52FE4FA591B491FC01E2519C
:10097000FE4FC591D49161110DC09FB7F8948C9131
:10098000209582238C938881282328839FBFDF9121
:10099000CF910895623051F49FB7F8943C91822F23
:1009A000809583238C93E8812E2BEFCF8FB7F8941B
:1009B000EC912E2B2C938FBFEACF862F642F0C94B3
:1009C000A1046F927F928F929F92AF92BF92CF922B
:1009D000DF92EF92FF920F931F93CF93DF9381E00B
:1009E000809390058FB7F894409165045091660408
:1009F00060916704709168048FBF80918005909129
:100A00008105A0918205B0918305481B590B6A0BA3
:100A10007B0B80918C0590918D05B0E0A0E0841750
:100A20009507A607B70708F01DC1C0E080918A05A9
:100A3000C81760F4E0918605F0918705EC0FF11D71
:100A400062E080810E94A104CF5FF0CF712C812CE5
:100A5000912C5401839480918B05781608F05FC027
:100A6000072D10E0E0918805F0918905E00FF11F56
:100A700061E080810E94A104E0918805F0918905E0
:100A8000E00FF11F60E080810E945F04D501C40186
:100A9000072C04C0880F991FAA1FBB1F0A94D2F706
:100AA0006C017C01E094F094612C80918A056816B9
:100AB000F8F4C62DD0E0E0918605F0918705EC0FA3
:100AC000FD1F80810E94DD032496CC0FDD1FCC5DCD
:100AD000DA4F892B41F4888199818C299D2999834A
:100AE00088836394E2CF888199818E219F21F7CFFB
:100AF000E0918805F0918905E00FF11F61E08081A8
:100B00000E945F048091880590918905080F191F44
:100B100060E0F80180810E94A10473949CCFC4E23C
:100B2000D5E0FE018FEF9FEF278D30A1232B21F41D
:100B3000148E968F858F11A2369625E0E036F20747
:100B400099F7F12C96E0D92E80918A05F81608F0D5
:100B500050C0E12C0F2D10E0000F111F045D1A4F43
:100B600020918B05E21608F042C0F8016081718186
:100B70000E2C02C0769567950A94E2F7F29E9001DA
:100B800011242E0D311DE4E2F5E080E0458D568DF7
:100B90002417350709F46AC08F5F36968A30B1F79B
:100BA00060FF23C0E4E2F5E090E080E0448D411175
:100BB00017C0E0918405F0918505E20FF31F408195
:100BC000D89EF001D99EF00D1124EC5DFA4F448FB0
:100BD000368F258F10A2178E61E00E94D20105C0CA
:100BE000019636968A30910509F7E394B9CFF394CC
:100BF000ABCF80E099A19111892F2696F5E0C03600
:100C0000DF07C1F79FB7F8944091650450916604DF
:100C100060916704709168049FBF40938005509372
:100C2000810560938205709383058823D9F08091B4
:100C300045058823B9F080914305909144050197BB
:100C400089F480914005DF91CF911F910F91FF9022
:100C5000EF90DF90CF90BF90AF909F908F907F905C
:100C60006F9008951092900580E0EDCF6170B5CF40
:100C70001F93CF93DF93182FEB0161E00E94A10433
:100C8000209739F460E0812FDF91CF911F910C9470
:100C90005F04CF3FD10511F461E0F5CFE12FF0E023
:100CA000E255FD4FE491E150E23108F0B3C0F0E0CD
:100CB0008827E25AF94F8F4F0C942F187006780648
:100CC0007D06870691060A079B06A306AB06B506B6
:100CD000BF06C906D806E2060A07EC06F6060007B4
:100CE00084B5806884BDC7BDDF91CF911F91089501
:100CF00084B5806284BDC8BDF7CF809180008068D4
:100D000080938000D0938900C0938800EDCF8091BC
:100D10008000806280938000D0938B00C0938A0013
:100D2000E3CF80918000886080938000D0938D0015
:100D3000C0938C00D9CF8091B00080688093B000C0
:100D4000C093B300D1CF8091B00080628093B00097
:100D5000C093B400C9CF80919000806880939000C8
:100D6000D0939900C0939800BFCF8091900080628B
:100D700080939000D0939B00C0939A00B5CF809150
:100D80009000886080939000D0939D00C0939C0059
:100D9000ABCF8091A00080688093A0008091A000DC
:100DA0008F7B8093A000D093A900C093A8009CCF14
:100DB0008091A00080628093A000D093AB00C0938C
:100DC000AA0092CF8091A00088608093A000D09369
:100DD000AD00C093AC0088CF8091200180688093E3
:100DE0002001D0932901C09328017ECF809120015A
:100DF000806280932001D0932B01C0932A0174CF8D
:100E000080912001886080932001D0932D01C093B0
:100E10002C016ACFC038D1050CF03ECF33CF3FB79D
:100E2000F8948091140490911504A0911604B09147
:100E3000170426B5A89B05C02F3F19F00196A11DE8
:100E4000B11D3FBFBA2FA92F982F8827BC01CD0114
:100E5000620F711D811D911D42E0660F771F881F73
:100E6000991F4A95D1F708958F929F92AF92BF92A2
:100E7000CF92DF92EF92FF924B015C010E940F072D
:100E80006B017C010E940F076C197D098E099F0977
:100E9000683E734081059105A8F321E0821A91080C
:100EA000A108B10888EEC80E83E0D81EE11CF11C31
:100EB00081149104A104B10429F7FF90EF90DF9011
:100EC000CF90BF90AF909F908F9008950895089510
:100ED0001F93CF93DF93C1E0C0937F03882399F1E1
:100EE000D091B8001091BA008091BC008A7B8093A9
:100EF000BC0060E084E10E945F0460E085E10E9444
:100F00005F041092E903C093E8031092C30361E009
:100F100084E10E945F0461E085E10E945F048091AA
:100F2000B9008E7F8093B9008091B9008D7F809346
:100F3000B90088E48093B80085E48093BC001093E6
:100F4000BA00D093B800DF91CF911F9108952091FE
:100F5000A003260F3327331F21323105ECF42091F3
:100F6000E903FC0190E080E0243069F082E008951C
:100F7000A091A0032191AC0140585C4FA40FB52F64
:100F8000B11D2C930196861798F38091A003680FEA
:100F90006093A00380E0089581E0089508958FEFA5
:100FA0009FEF08958FEF9FEF089580917E0390E06B
:100FB0009195819591090895CF92DF92EF92FF92DA
:100FC0000F931F93CF93DF937C01CB018A01209174
:100FD000EF03222389F0EB016B01C40ED51ECC1563
:100FE000DD0569F06991D701ED91FC910190F081E7
:100FF000E02DC7011995F3CF642F0E94A707C80100
:10100000DF91CF911F910F91FF90EF90DF90CF90E4
:101010000895CF93DF931F92CDB7DEB769832091F8
:10102000EF032223F9F020911204203258F021E03E
:1010300030E0FC013383228390E080E00F90DF9169
:10104000CF9108958091F003E82FF0E0EF50FC4F2E
:10105000998190838F5F8093F0038093120481E0E5
:1010600090E0ECCF61E0CE0101960E94A707F7CF98
:10107000CF92DF92EF92FF920F931F93CF93DF9364
:10108000FC01C48121E02093EF03C093110410926E
:10109000F003109212048385682B86E095E00E948D
:1010A0000908D0911204D13208F092C00E940F07B3
:1010B0006B017C018091E903811165C082E080931E
:1010C000E90381E08093E8038FEF8093E7031092B8
:1010D000E603D093E503A1EFB3E0E5ECF3E080E0B5
:1010E000D81385C01092C4038091C403CC0FC82BC1
:1010F000C093C4038091C303813009F07CC0109277
:10110000C3030E940F076B017C018091C40380938D
:10111000BB008091EB039091EC03A091ED03B091A3
:10112000EE03892B8A2B8B2B99F00E940F070091DD
:10113000EB031091EC032091ED033091EE036C1959
:101140007D098E099F090617170728073907E0F15F
:101150008091BC0083FDD9CF85EC8093BC000E94B8
:101160000F076B017C018091E903823009F445C0CF
:101170008091E7038F3F61F18091E703803241F175
:101180008091E70325C08091EB039091EC03A0913F
:10119000ED03B091EE03892B8A2B8B2B09F48ACFB8
:1011A0000E940F070091EB031091EC032091ED03D7
:1011B0003091EE036C197D098E099F0906171707F8
:1011C0002807390708F076CF8091EA030E94680764
:1011D0001092F003109212041092EF03DF91CF915E
:1011E0001F910F91FF90EF90DF90CF9008959D9108
:1011F00091938F5F75CF85EEB0CF8091EB03909187
:10120000EC03A091ED03B091EE03892B8A2B8B2B7D
:1012100009F4A9CF0E940F070091EB031091EC0392
:101220002091ED033091EE036C197D098E099F0921
:10123000061717072807390708F095CFC5CF90E0A4
:1012400080E008950F931F93CF938C01C62F0E94C7
:1012500038086C2F6460C8010E9438086C2F6B7FBF
:10126000C8010E94380883EC90E00197F1F7CF9114
:101270001F910F9108950F931F93CF93DF938C01CC
:10128000D62FC42F607F642B0E94220980E1D89F53
:10129000B00111246C2BC801DF91CF911F910F91E8
:1012A0000C942209CF93DF9300D000D01F921F929D
:1012B000CDB7DEB798E0E9E3F2E0DE0111960190E8
:1012C0000D929A95E1F790912005961710F46FEF23
:1012D000690F262F30E0220F331F41E050E04C0F02
:1012E0005D1F240F351FF9016081680F606840E0C1
:1012F00088E195E028960FB6F894DEBF0FBECDBF0B
:10130000DF91CF910C943B0940E061E088E195E0EA
:101310000E943B098BE39FE10197F1F7089541E0BB
:101320000E943B0981E090E0089541E0682F88E148
:1013300095E00E943B0981E090E00895FB01019057
:101340000020E9F73197AF01461B570BDC01ED9107
:10135000FC910280F381E02D19948F929F92AF92BD
:10136000BF920F931F93CF93DF93CDB7DEB7A197B3
:101370000FB6F894DEBF0FBECDBF19A2423008F4FD
:101380004AE08E010F5D1F4F842E912CB12CA12CB1
:10139000A50194010E940D18E62FB901CA01EA3097
:1013A00004F5E05DD801EE938D01232B242B252B32
:1013B00079F790E080E0109729F0BD0188E195E091
:1013C0000E949E09A1960FB6F894DEBF0FBECDBF56
:1013D000DF91CF911F910F91BF90AF909F908F9011
:1013E0000895E95CDFCFCF92DF92EF92FF92CF9327
:1013F000DF936C01990FEE08FF08F7FE17C08DE22E
:101400000E949509EC0166277727CB016C197D09AD
:101410008E099F094AE00E94AD098C0F9D1FDF9144
:10142000CF91FF90EF90DF90CF9008954AE0C701F1
:10143000B601DF91CF91FF90EF90DF90CF900C94A9
:10144000AD09BC0188E195E00C949E094F925F9232
:101450006F927F928F929F92AF92BF92CF92DF92C4
:10146000EF92FF926B017C01AC019B010E94081876
:101470006BE772E0811126C046015701E894B7F886
:101480002FEF3FEF4FE75FE7C501B4010E94081857
:1014900081110CC02FEF3FEF4FE75FE7C501B401AB
:1014A0000E94BB156FE772E0181664F02FEF3FEF54
:1014B0004FE75FE4C701B6010E940318181694F4C1
:1014C00063E872E088E195E0FF90EF90DF90CF90C5
:1014D000BF90AF909F908F907F906F905F904F9054
:1014E0000C949E092FEF3FEF4FE75FECC701B60169
:1014F0000E94BB1587FDE4CF20E030E0A901C701C1
:10150000B6010E94BB15B12CA12C87FF08C08DE24B
:101510000E9495095C01F7FAF094F7F8F0942AE03C
:1015200037ED43EA5BE3C701B6010E94F6162B01D3
:101530003C010E94D4176B017C010E94C0159B01E5
:10154000AC01C301B2010E94F5162B013C014AE037
:10155000C701B6010E94AD097C01EA0CFB1C8EE2BA
:101560000E949509E80EF91E20E030E040E251E4C7
:10157000C301B2010E9421162B013C010E94D41725
:101580004B01B12CA12C4AE0C501B4010E94AD0968
:10159000E80EF91EC501B4010E94C0159B01AC0103
:1015A000C301B2010E94F51620E030E040E251E4B0
:1015B0000E9421160E94D41790E080E04AE00E9429
:1015C000AD098E0D9F1DFF90EF90DF90CF90BF90E3
:1015D000AF909F908F907F906F905F904F90089505
:1015E000CF93DF93EC018091120590911305009742
:1015F00059F020911405309115052C173D0720F066
:1016000081E0DF91CF910895BE016F5F7F4F0E940F
:101610005C19009789F09093130580931205D0937D
:101620001505C09314052091160530911705232B3D
:1016300039F7FC011082E4CF80E0E3CF0F931F93D2
:10164000CF93DF931F921F92CDB7DEB789831A82A3
:1016500000911605109117050F5F1F4FC8010E94DA
:10166000F00A8823A1F02091120530911305809192
:10167000160590911705BE016F5F7F4F820F931F74
:101680000E944F1A109317050093160581E00F90E2
:101690000F90DF91CF911F910F91089590E080E01E
:1016A0000E94F00A2091120530911305811113C098
:1016B0002115310519F0C9010E94D31810921305A4
:1016C000109212051092170510921605109215052A
:1016D000109214050895109217051092160568E9E6
:1016E00072E0C9010C944F1A809112059091130574
:1016F000009711F00C947F1560E070E0CB01089525
:1017000085ED8093BC008091EB039091EC03A09158
:10171000ED03B091EE030796A11DB11D23E0B69530
:10172000A795979587952A95D1F72091BC0024FD20
:1017300003C01092E90308954091EB035091EC032C
:101740006091ED037091EE03452B462B472B69F317
:101750000097A105B10541F025E32A95F1F70000B6
:101760000197A109B109E1CF8091EA030C946807C0
:101770001F920F920FB60F9211240BB60F922F9358
:101780003F934F935F936F937F938F939F93AF9309
:10179000BF93EF93FF9389E694E00E94B602FF9116
:1017A000EF91BF91AF919F918F917F916F915F91D9
:1017B0004F913F912F910F900BBE0F900FBE0F9046
:1017C0001F9018951F920F920FB60F9211240BB60F
:1017D0000F922F938F939F93EF93FF93E091790450
:1017E000F0917A048081E0917F04F091800482FD81
:1017F0001DC09081809182048F5F8F73209183043C
:10180000821741F0E0918204F0E0E759FB4F958F99
:1018100080938204FF91EF919F918F912F910F9070
:101820000BBE0F900FBE0F901F9018958081F2CFC6
:101830001F920F920FB60F9211242F933F938F9305
:101840009F93AF93BF938091650490916604A0919C
:101850006704B09168043091130423E0230F2D37FF
:1018600058F50196A11DB11D2093130480936504C2
:1018700090936604A0936704B09368048091140465
:1018800090911504A0911604B09117040196A11D22
:10189000B11D8093140490931504A0931604B09383
:1018A0001704BF91AF919F918F913F912F910F900E
:1018B0000FBE0F901F90189526E8230F0296A11DCA
:1018C000B11DD2CF1F920F920FB60F9211240BB6FB
:1018D0000F922F933F934F935F936F937F938F93C9
:1018E0009F93AF93BF93EF93FF93E0910E02F0911C
:1018F0000F021995FF91EF91BF91AF919F918F9139
:101900007F916F915F914F913F912F910F900BBEFF
:101910000F900FBE0F901F9018951F920F920FB649
:101920000F9211240BB60F922F933F934F935F9317
:101930006F937F938F939F93AF93BF93EF93FF9397
:10194000E0910C02F0910D021995FF91EF91BF917A
:10195000AF919F918F917F916F915F914F913F9147
:101960002F910F900BBE0F900FBE0F901F901895E8
:101970001F920F920FB60F9211240BB60F922F9356
:101980003F934F935F936F937F938F939F93AF9307
:10199000BF93EF93FF93E0910202F0910302199538
:1019A000FF91EF91BF91AF919F918F917F916F9137
:1019B0005F914F913F912F910F900BBE0F900FBEF3
:1019C0000F901F9018951F920F920FB60F9211242F
:1019D0000BB60F922F933F934F935F936F937F9329
:1019E0008F939F93AF93BF93EF93FF93E091000288
:1019F000F09101021995FF91EF91BF91AF919F91E5
:101A00008F917F916F915F914F913F912F910F90A7
:101A10000BBE0F900FBE0F901F9018951F920F9244
:101A20000FB60F9211240BB60F922F933F934F9343
:101A30005F936F937F938F939F93AF93BF93EF9336
:101A4000FF93E0910A02F0910B021995FF91EF913B
:101A5000BF91AF919F918F917F916F915F914F91C6
:101A60003F912F910F900BBE0F900FBE0F901F90C4
:101A700018951F920F920FB60F9211240BB60F926A
:101A80002F933F934F935F936F937F938F939F9386
:101A9000AF93BF93EF93FF93E0910802F091090297
:101AA0001995FF91EF91BF91AF919F918F917F9188
:101AB0006F915F914F913F912F910F900BBE0F90BF
:101AC0000FBE0F901F9018951F920F920FB60F9296
:101AD00011240BB60F922F933F934F935F936F9305
:101AE0007F938F939F93AF93BF93EF93FF93E09177
:101AF0000602F09107021995FF91EF91BF91AF9106
:101B00009F918F917F916F915F914F913F912F9115
:101B10000F900BBE0F900FBE0F901F9018951F9245
:101B20000F920FB60F9211240BB60F922F933F9383
:101B30004F935F936F937F938F939F93AF93BF93D5
:101B4000EF93FF93E0910402F09105021995FF9144
:101B5000EF91BF91AF919F918F917F916F915F9125
:101B60004F913F912F910F900BBE0F900FBE0F9092
:101B70001F9018951F920F920FB60F9211240BB65B
:101B80000F922F933F934F935F936F937F938F9316
:101B90009F93AF93BF93EF93FF938091B900887F9A
:101BA000803609F44DC008F040C0883209F4A7C05F
:101BB00028F5803109F49BC0C8F4882309F4F7C0E4
:101BC000883009F494C0FF91EF91BF91AF919F913C
:101BD0008F917F916F915F914F913F912F910F90D6
:101BE0000BBE0F900FBE0F901F901895883109F40F
:101BF00086C0803241F78093E70314C0803409F433
:101C00009BC040F48033B9F38833E9F68093E7034F
:101C100085ECAEC0803509F483C0883509F494C0E2
:101C2000883489F60E94800BCECF883909F48AC0A7
:101C300038F5883729F050F4883611F0803719F6D6
:101C400083E08093E9031092C20355C0883809F4F9
:101C500079C0803919F0803809F0B5CF8091C2037E
:101C6000803208F06FC0E091C20381E08E0F809354
:101C7000C2038091BB00F0E0EE55FC4F80833BC077
:101C8000803B39F0D0F4803A09F477C0883A09F003
:101C90009ACF84E08093E9031092A1031092A003ED
:101CA000F0E0E0E019958091A00381110FC081E080
:101CB0008093A0031092800309C0803C09F4A8CF50
:101CC000883C09F4A5CF883B09F07DCFE091A103C2
:101CD00081E08E0F8093A103F0E0E058FC4F8081FB
:101CE0008093BB009091A1038091A00329C08091B3
:101CF000C4038093BB0085EC8093BC0064CF9091BB
:101D0000E6038091E503981758F5E091E60381E03A
:101D10008E0F8093E603F0E0EB53FC4F8081E9CF18
:101D2000E091E60381E08E0F8093E6038091BB0093
:101D3000F0E0EB53FC4F80839091E6038091E50344
:101D40009817C8F285E8D8CFE091E60381E08E0FBE
:101D50008093E6038091BB00F0E0EB53FC4F80835F
:101D60008091E80381115ECF81E08093C30384EA10
:101D70008093BC001092E90326CF85EC8093BC00D1
:101D80001092E9038091C203803230F4E091C203E3
:101D9000F0E0EE55FC4F10826091C20370E082EAE1
:101DA00093E0F0E0E0E019951092C2030CCF10929E
:101DB000E70338CF10926C0410926B0488EE93E026
:101DC000A0E0B0E080936D0490936E04A0936F0444
:101DD000B093700425E432E030936A0420936904E0
:101DE00025EC30E0309376042093750424EC30E049
:101DF000309378042093770420EC30E030937A0419
:101E00002093790421EC30E030937C0420937B0410
:101E100022EC30E030937E0420937D0426EC30E009
:101E20003093800420937F041092820410928304E4
:101E300010928404109285041092090510920805EE
:101E400080930A0590930B05A0930C05B0930D05A4
:101E500087E592E09093070580930605109226058A
:101E600010922A051092290510922B0585E792E021
:101E70009093250580932405E0E4F5E01082148218
:101E800013821582369685E0EC37F807B9F78FE1B3
:101E900092E090938705809386058BE192E0909382
:101EA00089058093880584E080938A0580938B055B
:101EB00023E232E030938505209384052AE030E068
:101EC00030938D0520938C0524EF31E030938F05FE
:101ED00020938E0510929205109291051092800524
:101EE0001092810510928205109283051092900540
:101EF00010921B0510921A0529E632E0309319055D
:101F00002093180597E290931C0594E19093210586
:101F1000809322051092230510921305109212054A
:101F200010921505109214051092170510921605BF
:101F300090E080E00E94F00A209112053091130594
:101F4000811113C02115310519F0C9010E94D31860
:101F50001092130510921205109217051092160593
:101F600010921505109214050895109217051092FD
:101F7000160568E972E0C9010C944F1ACF93DF93FC
:101F8000CDB7DEB760970FB6F894DEBF0FBECDBFFA
:101F9000789484B5826084BD84B5816084BD85B544
:101FA000826085BD85B5816085BD80916E00816050
:101FB00080936E00109281008091810082608093F6
:101FC00081008091810081608093810080918000F8
:101FD0008160809380008091B10084608093B10023
:101FE0008091B00081608093B00080919100826008
:101FF0008093910080919100816080939100809105
:1020000090008160809390008091A1008260809315
:10201000A1008091A10081608093A1008091A00027
:1020200081608093A00080912101826080932101D2
:102030008091210181608093210180912001816044
:102040008093200180917A00846080937A0080914F
:102050007A00826080937A0080917A008160809318
:102060007A0080917A00806880937A001092C10093
:1020700080911D05886080931D0514E01093200554
:1020800062E370E080E090E00E94340760912305F5
:1020900088E195E00E94380868EE73E080E090E007
:1020A0000E94340760E388E195E00E9422098BE4F6
:1020B00096E40197F1F760E388E195E00E94220938
:1020C0008BE496E40197F1F760E388E195E00E94E4
:1020D000220983E592E00197F1F760E288E195E05B
:1020E0000E94220960911D05606240E088E195E050
:1020F0000E943B0910931E0540E06CE088E195E0EA
:102100000E943B090E94840982E080931F0540E001
:1021100066E088E195E00E943B0940E062E088E1EA
:1021200095E00E943B098BE39FE10197F1F760E0A6
:1021300080E00E94520987E892E00E94210A02E1B1
:1021400012E01A82198289819A810E94DF16D801D1
:102150008D938D01E981FA813196FA83E98338976D
:1021600091F7E0917904F0917A0482E08083E09124
:102170007504F09176041082E0917704F091780470
:102180008FEC808310928104E0917D04F0917E04B5
:1021900086E08083E0917B04F0917C048081806103
:1021A0008083E0917B04F0917C048081886080834F
:1021B000E0917B04F0917C04808180688083E091D1
:1021C0007B04F0917C0480818F7D808362E172E0EA
:1021D00089E694E00E949E0966E972E089E694E04F
:1021E0000E949E0962E080E20E94A10462E081E216
:1021F0000E94A10462E082E00E94A10462E083E008
:102200000E94A10461E088E00E94A10461E089E0ED
:102210000E94A10461E08AE00E94A10461E08CE0D8
:102220000E94A10461E08DE00E94A10461E08BE0C6
:102230000E94A10481E994E090930302809302023A
:1022400080916A00837F886080936A00ED9A89E9B3
:1022500094E0909301028093000280916A008C7F49
:10226000826080936A00EC9A89E094E090930B027C
:1022700080930A0280916900806C80936900EB9AD8
:1022800084E394E0909309028093080280916900AE
:10229000806380936900EA9A02E013E022242A9482
:1022A000312C80916404811148C060E00E94520981
:1022B00087E892E00E94210A0E94E104D82E8093D0
:1022C00063048823B1F0E0906104F0906204F701A8
:1022D000E85AFB4F808361E08E2D0E9452098D2DBC
:1022E0000E949509FFEFEF1AFF0AF0926204E09254
:1022F000610480916104909162040897F1F40E9456
:102300008409109262041092610462E172E088E52F
:1023100094E00E94461A892B09F0D4C189E992E021
:102320000E94210A68EE73E080E090E00E9434078A
:1023300081E0809364040E94840980916404813068
:10234000D1F560E080E00E9452098BEA92E00E94A1
:10235000210A61E080E00E94520989EB92E00E942C
:10236000210A0E94E104F82E809363048823C9F0B7
:10237000E0906104D090620462E08E2D0E945209C8
:102380008F2D0E9495096F2D8E2D9D2D0E94E71691
:10239000809161049091620401969093620480930D
:1023A00061048091610490916204089721F4009384
:1023B00064040E948409809164048230E9F460E03E
:1023C00080E00E94520982EC92E00E94210A61E0C2
:1023D00080E00E9452098FEC92E00E94210A0E9444
:1023E000E10480936304882339F0813309F075C1D7
:1023F000109364040E94840980916404833009F07E
:102400002AC180915704811158C060E00E9452098E
:102410008FED92E00E94210A61E080E00E94520963
:102420008BEE92E00E94210A62E080E00E94520955
:1024300083EF92E00E94210A63E080E00E9452094B
:102440008BEF92E00E94210A609153047091540432
:1024500080915504909156040E94260A85E093E0ED
:102460000E94210A60914F047091500480915104A0
:10247000909152040E94260A0E94E1048093630412
:102480008823D9F0813309F02FC1A1E0A0934E0435
:102490000E94840960E080E00E94520987E093E096
:1024A0000E94210A61E080E00E94520984E193E0E9
:1024B0000E94210AB1E0B093570480915704813003
:1024C000F9F40E94E104F82E809363048823C1F09C
:1024D000E3E28E1314C1F0904E040E94740BFF20AF
:1024E00009F408C170934D0460934C040E944E0B94
:1024F0000E948409109249041092480410925704D3
:1025000080914C0490914D048F3F910529F024F067
:1025100030924D0420924C0480914A0490914B04D7
:102520008F3F910529F024F030924B0420924A0409
:1025300080E20E94DD03892B99F460E088E00E942C
:102540005F0461E089E00E945F0460914C04709137
:102550004D048AE00E9438060E94840910935704B3
:1025600080915704833021F560E080E00E94520999
:1025700085E293E00E94210A61E080E00E94520916
:1025800081E393E00E94210A80914C0490914D04D4
:102590000E94F30962E080E00E94520960915304B6
:1025A0007091540480915504909156040E94260A1B
:1025B00081E20E94DD03892BA1F460E08CE00E949F
:1025C0005F0461E08DE00E945F0460914A047091B5
:1025D0004B048BE00E9438060E94840984E08093BB
:1025E000570480915704843021F560E080E00E9418
:1025F00052098DE393E00E94210A61E080E00E948D
:10260000520981E393E00E94210A80914A0490914B
:102610004B040E94F30962E080E00E94520960913D
:102620004F047091500480915104909152040E9483
:10263000260A83E00E94DD03892B21F410925704BF
:102640000E94840982E00E94DD03892B21F410920C
:1026500057040E94840980916404843081F580913C
:102660005704811161C060E00E94520989E493E03F
:102670000E94210A0E94E104F82E809363048823BB
:10268000F1F0B3E28B131DC2F09057040E94740B5B
:10269000F1100CC20E94C21560934404709345046B
:1026A0008093460490934704F394F09257040E9459
:1026B0004E0B0E94840910921904109218040E9473
:1026C0004503EFCD81EA92E00E94210A64EF71E0B8
:1026D00080E090E00E9434072ECE823309F08CCE49
:1026E00094E09093640486CE823309F0D1CE1092A8
:1026F0004E04CECE70934B0460934A04F7CE0E94F2
:102700001E0BC0904804D090490462E08C2D0E94BA
:1027100052098F2D0E949509FFEFCF1ADF0AD09240
:102720004904C0924804ECCE813039F460E080E086
:102730000E94520985E593E09BCF2091530430918C
:102740005404409155045091560460914404709192
:10275000450480914604909147040E94F5166B0150
:102760007C01C0924004D0924104E0924204F09275
:10277000430420913C0430913D0440913E0450912B
:102780003F040E94F5166D837E838F839887609344
:1027900038047093390480933A0490933B04C092B8
:1027A0003C04D0923D04E0923E04F0923F0420911C
:1027B0004F04309150044091510450915204609163
:1027C00034047091350480913604909137040E944E
:1027D000F5162B013C014092300450923104609276
:1027E00032047092330420912C0430912D044091D6
:1027F0002E0450912F040E94F51669877A878B87E3
:102800009C87609328047093290480932A049093F2
:102810002B0440922C0450922D0460922E0470924E
:102820002F040E940F070E94C0154B015C012091EC
:1028300024043091250440912604509127040E94DD
:10284000F51620E034E244E759E40E9462176983F8
:102850007A838B839C838092240490922504A09297
:102860002604B09227049B01AC01C701B6010E9467
:10287000211620912004309121044091220450918E
:1028800023040E94F6166D877E878F87988B60934E
:1028900020047093210480932204909323042981BF
:1028A0003A814B815C81C301B2010E9421162091C3
:1028B0001C0430911D0440911E0450911F040E947D
:1028C000F6164B015C0180921C0490921D04A092AC
:1028D0001E04B0921F0420E030E041EE53E4C70133
:1028E000B6010E9421166B017C0120E030E040E03F
:1028F0005FE36D857E858F8598890E9421169B01F7
:10290000AC01C701B6010E94F6166B017C0120E004
:1029100030E040E250E46D817E818F8198850E9495
:10292000211629813A814B815C810E9462179B01AB
:10293000AC01C701B6010E94F6166B017C0120E0D4
:1029400030E041EE53E4C301B2010E9421162B0195
:102950003C0120E030E040E05FE3C501B4010E94AB
:1029600021169B01AC01C301B2010E94F6164B0176
:102970005C0120E030E040E250E469857A858B8597
:102980009C850E94211629813A814B815C810E949D
:1029900062179B01AC01C501B4010E94F6164B0100
:1029A0005C01C701B6019F770E94D41760931B0496
:1029B000C501B4019F770E94D41760931A0420E0E8
:1029C00030E0A901C701B6010E94031818160CF0E7
:1029D0005BC091E09093110220E030E0A901C501B5
:1029E000B4010E94031818160CF051C0A1E0A09386
:1029F00010028091110261E0882309F44BC089E044
:102A00000E945F0460E088E00E945F0480911002F1
:102A1000882309F445C060E08CE00E945F0461E017
:102A20008DE00E945F0460911B0470E08AE00E94C8
:102A3000380660911A0470E08BE00E94380660E06E
:102A400080E00E94520981E693E00E94210A609191
:102A500053047091540480915504909156040E943F
:102A6000260A61E080E00E9452098DE693E00E9410
:102A7000210A60914F04709150048091510490910B
:102A800052040E94260AF6CD10921102A5CF109290
:102A90001002AFCF88E00E945F0460E089E0B4CF0D
:102AA00061E08CE00E945F0460E0BACF0E94C21532
:102AB0006093340470933504809336049093370404
:102AC000F3CD0E941E0BC0901804D090190461E051
:102AD0008C2D0E9452098F2D0E949509EFEFCE1A7E
:102AE000DE0AD0921904C0921804E9CD8091120533
:102AF00090911305009711F00C94D31808951F932B
:102B0000FC0199278827BC01E89411911032E9F360
:102B1000193010F01E30C8F31B3251F01D3249F449
:102B2000689406C00E94A615610F711D811D911D3C
:102B3000119110531A30B0F33EF490958095709532
:102B400061957F4F8F4F9F4F1F910895592F482FA9
:102B5000372F262F660F771F881F991F660F771F45
:102B6000881F991F620F731F841F951F660F771FA1
:102B7000881F991F08950E94FD1508F481E00895AB
:102B8000E89409C097FB3EF4909580957095619507
:102B90007F4F8F4F9F4F9923A9F0F92F96E9BB27BD
:102BA0009395F695879577956795B795F111F8CF39
:102BB000FAF4BB0F11F460FF1BC06F5F7F4F8F4FA4
:102BC0009F4F16C0882311F096E911C0772321F09A
:102BD0009EE8872F762F05C0662371F096E8862F32
:102BE00070E060E02AF09A95660F771F881FDAF789
:102BF000880F9695879597F90895990F0008550FB6
:102C0000AA0BE0E8FEEF16161706E807F907C0F072
:102C100012161306E407F50798F0621B730B840B7A
:102C2000950B39F40A2661F0232B242B252B21F454
:102C300008950A2609F4A140A6958FEF811D811DF4
:102C400008950E9434160C94A5160E94971638F029
:102C50000E949E1620F0952311F00C948E160C9471
:102C6000941611240C94D9160E94B61670F3959FF1
:102C7000C1F3950F50E0551F629FF001729FBB2773
:102C8000F00DB11D639FAA27F00DB11DAA1F649F0F
:102C90006627B00DA11D661F829F2227B00DA11DC2
:102CA000621F739FB00DA11D621F839FA00D611D48
:102CB000221F749F3327A00D611D231F849F600D69
:102CC000211D822F762F6A2F11249F5750409AF092
:102CD000F1F088234AF0EE0FFF1FBB1F661F771F1E
:102CE000881F91505040A9F79E3F510580F00C94E9
:102CF0008E160C94D9165F3FE4F3983ED4F3869574
:102D000077956795B795F795E7959F5FC1F7FE2B88
:102D1000880F911D9695879597F9089597F99F6764
:102D200080E870E060E008959FEF80EC0895002453
:102D30000A941616170618060906089500240A9420
:102D400012161306140605060895092E0394000CA6
:102D500011F4882352F0BB0F40F4BF2B11F460FF35
:102D600004C06F5F7F4F8F4F9F4F089557FD90585E
:102D7000440F551F59F05F3F71F04795880F97FB3F
:102D8000991F61F09F3F79F08795089512161306F9
:102D90001406551FF2CF4695F1DF08C01616170628
:102DA0001806991FF1CF869571056105089408955D
:102DB000E894BB2766277727CB0197F90895F999FF
:102DC000FECF92BD81BDF89A992780B50895262F30
:102DD000F999FECF1FBA92BD81BD20BD0FB6F89400
:102DE000FA9AF99A0FBE019608955058BB27AA2760
:102DF0000E940D170C94A5160E94971638F00E9499
:102E00009E1620F039F49F3F19F426F40C94941682
:102E10000EF4E095E7FB0C948E16E92F0E94B6168F
:102E200058F3BA17620773078407950720F079F4FF
:102E3000A6F50C94D8160EF4E0950B2EBA2FA02D03
:102E40000B01B90190010C01CA01A0011124FF2757
:102E5000591B99F0593F50F4503E68F11A16F04052
:102E6000A22F232F342F4427585FF3CF4695379551
:102E70002795A795F0405395C9F77EF41F16BA0B16
:102E8000620B730B840BBAF09150A1F0FF0FBB1FC4
:102E9000661F771F881FC2F70EC0BA0F621F731F0D
:102EA000841F48F4879577956795B795F7959E3F6A
:102EB00008F0B0CF9395880F08F09927EE0F9795FB
:102EC000879508950E9476170C94A5160E949E1669
:102ED00058F00E94971640F029F45F3F29F00C94B7
:102EE0008E1651110C94D9160C9494160E94B61695
:102EF00068F39923B1F3552391F3951B550BBB2729
:102F0000AA2762177307840738F09F5F5F4F220F6D
:102F1000331F441FAA1FA9F335D00E2E3AF0E0E864
:102F200032D091505040E695001CCAF72BD0FE2FAE
:102F300029D0660F771F881FBB1F26173707480742
:102F4000AB07B0E809F0BB0B802DBF01FF279358FA
:102F50005F4F3AF09E3F510578F00C948E160C941A
:102F6000D9165F3FE4F3983ED4F38695779567953D
:102F7000B795F7959F5FC9F7880F911D969587952F
:102F800097F90895E1E0660F771F881FBB1F62174E
:102F900073078407BA0720F0621B730B840BBA0B0C
:102FA000EE1F88F7E09508950E94BE1688F09F579F
:102FB00098F0B92F9927B751B0F0E1F0660F771F5D
:102FC000881F991F1AF0BA95C9F714C0B13091F053
:102FD0000E94D816B1E008950C94D816672F782F68
:102FE0008827B85F39F0B93FCCF386957795679518
:102FF000B395D9F73EF490958095709561957F4F84
:103000008F4F9F4F08950E94FD1508F48FEF08958C
:103010000E94FD15880B990B0895A1E21A2EAA1B98
:10302000BB1BFD010DC0AA1FBB1FEE1FFF1FA21778
:10303000B307E407F50720F0A21BB30BE40BF50B75
:10304000661F771F881F991F1A9469F760957095FE
:10305000809590959B01AC01BD01CF010895EE0FC5
:10306000FF1F881F8BBF0790F691E02D19940F93D7
:103070001F93CF93DF938230910510F482E090E0AC
:10308000E0919505F091960530E020E0B0E0A0E0F9
:10309000309799F42115310509F44AC0281B390BE2
:1030A00024303105D8F58A819B816115710589F13C
:1030B000FB0193838283FE0111C040815181028113
:1030C000138148175907E0F04817590799F41097EA
:1030D00061F012960C93129713961C933296CF01BF
:1030E000DF91CF911F910F91089500939505109353
:1030F0009605F4CF2115310551F04217530738F0EA
:10310000A901DB019A01BD01DF01F801C1CFEF0187
:10311000F9CF9093960580939505CDCFFE01E20FF0
:10312000F31F819391932250310939832883D7CF9C
:103130002091930530919405232B41F42091350281
:1031400030913602309394052093930520913302F9
:10315000309134022115310541F42DB73EB740912D
:10316000370250913802241B350BE0919305F09102
:103170009405E217F307A0F42E1B3F0B281739071D
:1031800078F0AC014E5F5F4F2417350748F04E0FC3
:103190005F1F5093940540939305819391939FCF24
:1031A000F0E0E0E09CCFCF93DF930097E9F0FC01E3
:1031B000329713821282A0919505B0919605ED0188
:1031C00030E020E01097A1F420813181820F931F1D
:1031D00020919305309194052817390709F061C0B3
:1031E000F0939405E0939305DF91CF910895EA0160
:1031F000CE17DF07E8F54A815B819E014115510535
:10320000B1F7E901FB83EA8349915991C40FD51FB6
:10321000EC17FD0761F4808191810296840F951F60
:10322000E90199838883828193819B838A83F0E07B
:10323000E0E012968D919C9113970097B9F52D912E
:103240003C911197CD010296820F931F2091930517
:10325000309194052817390739F6309751F51092B7
:10326000960510929505B0939405A0939305BCCF55
:10327000D383C28340815181840F951FC817D9071A
:1032800061F44E5F5F4F88819981480F591F5183C8
:1032900040838A819B81938382832115310509F0C4
:1032A000B0CFF0939605E09395059ECFFD01DC012C
:1032B000C0CF13821282D7CF4F925F926F927F92CC
:1032C0008F929F92AF92BF92CF92DF92EF92FF9236
:1032D0000F931F93CF93DF938C01009799F4CB0149
:1032E000DF91CF911F910F91FF90EF90DF90CF90E2
:1032F000BF90AF909F908F907F906F905F904F9016
:103300000C943718FC01E60FF71F9C01225031097D
:10331000E217F30708F4AEC0D901CD91DC91119703
:10332000C617D70720F1C530D10578F0CE01049734
:103330008617970750F0C61BD70B2297C193D193DE
:103340006D937C93CF010E94D318C801DF91CF9178
:103350001F910F91FF90EF90DF90CF90BF90AF90B3
:103360009F908F907F906F905F904F9008955B013A
:10337000AC1ABD0A4C018C0E9D1EA0919505B09112
:103380009605512C412CF12CE12C109731F58091B0
:103390009305909194058815990509F05CC046162F
:1033A000570608F058C0809133029091340200977C
:1033B00041F48DB79EB74091370250913802841B7B
:1033C000950BE817F90708F055C0F0939405E093C2
:1033D0009305F90171836083B8CF8D919C9111970A
:1033E00012966C90129713967C901397A815B905B6
:1033F00059F56C0142E0C40ED11CCA14DB0420F163
:10340000AC014A195B09DA011296159780F06282C5
:10341000738251834083D9016D937C93E114F1044D
:1034200071F0D7011396FC93EE9312978ECF2296EC
:103430008C0F9D1FF90191838083F301EFCFF093EF
:103440009605E093950581CF4816590608F42C019E
:103450007D01D3019ACFCB010E9437187C010097E0
:1034600049F0AE01B8010E943D1AC8010E94D3186C
:1034700087016BCF10E000E068CFFB01DC0102C0E8
:1034800001900D9241505040D8F70895FB01DC01A6
:103490008D91019080190110D9F3990B0895FB01CA
:1034A000DC0101900D920020E1F7089511E0CBE7D7
:1034B000D1E000E006C0802FFE010E942F18219667
:1034C000011DCC37D10780E00807A9F7F894FFCF9A
:1034D0006607660766076607660766076607660784
:1034E00001013132333435363738001A1B1C1D16B2
:1034F0001718193738392F343536783132332D2AA9
:1035000030232B0000970580000000400014005479
:103510000000000000D80242026F022503A0027ED4
:10352000029202000000000908DC071F09CE07D53F
:1035300007D207CF07000000008F0942021F09676A
:103540000700000000DD048D0406046E616E006952
:103550006E66006F766600456E746572205061730A
:1035600073776F7264000D0A00436F727265637443
:1035700000496E636F727265637400456E746572A4
:10358000204E6577204F6E65003820646967697446
:1035900073003120666F72206D616E75616C003250
:1035A00020666F72206175746F6D6174696300438A
:1035B000686F6F73652061786973003120666F7280
:1035C0002078003220666F72207900706F73286D4A
:1035D0006D293D20002C0043686F6F736520737068
:1035E000656564007072657373203D20746F20659B
:1035F0006E746572004D6F76696E67206F6E20780D
:10360000007769746820737065656420004D6F767B
:10361000696E67206F6E207900656E746572207028
:103620006F73583A00656E74657220706F73593A03
:1036300000706F737820286D6D293A2000706F73C9
:0A3640007920286D6D293A20000062
:00000001FF
